:03000000020C5E91
:0C0C5E00787FE4F6D8FD758129020CA512
:100D4A00413A202020423A202000433A20202044E1
:100D5A003A202000546F6B656E3A20002020202034
:100D6A002000202020202020202020202020202099
:100D7A00202000413A00423A002020202020200072
:100D8A00433A00443A00413A20202000423A2020C7
:0E0D9A002000433A20202000443A2020200070
:040F4700C10EC10D09
:100E0100E4F5A0C282C280C2817F38FE120EEE7F5D
:100E1100047E00120E877F067E00120EEE7F047E96
:100E210000120E877F0C7E00120EEE7F047E0012F0
:100E31000E877F017E00120EEE7F047E00120E8768
:070E41007F807E00020EEE2F
:0E0E7900AF0A120ED8AF0B120ED87FD07E0734
:100E8700E4FDFCC3ED9FEC9E5015E4FBFA0BBB00A1
:0F0E9700010ABA01F8BB7EF50DBD00010C80E425
:010EA6002229
:100E48008E228F238B248A2589267C007D0A120C0A
:100E580009EF2430120BD5AE22AF237C007D0A1295
:100E68000C09ED2430AB24AA25A926900001020B19
:010E7800E792
:040EEA007FC07E0047
:100EEE00C280C281D2828FA07F0A7E00120E87C27C
:020EFE0082224E
:0C0ECC00AF13120ED8AF14120ED87F2006
:100ED800D280C281D2828FA07F0A7E00120E87C282
:020EE800822264
:100DA8007F017E00120EEE7F807E00120EEEAE08EE
:100DB800AF097C007D0A120C09EF2430F50AAE0851
:100DC800AF097C007D0A120C09ED2430F50B7BFF7E
:040DD8007A0D795EB9
:100DDC008B1B8A1C891DAB1BAA1CA91D120BBC608A
:100DEC0013051DE51D7002051C14F9120BBCFF1236
:050DFC000ED880E22288
:100F1500758920758DCC759850D28ED2ACD2AF2202
:080F3F008F99300EFDC20E2255
:100EA7008B278A288929AB27AA28A929120BBC6076
:100EB700130529E5297002052814F9120BBCFF1246
:050EC7000F3F80E22254
:040F0000AF0EAE0D75
:100F0400EF64634E7003FEFF22EF2401FFE43EFE14
:010F140022BA
:090F3500E4FF300DFDC20DAF997F
:010F3E002290
:03002300020F25A4
:100F2500309905C299D20E32309804C298D20D324A
:100CEA00A205E433FF3009047E0180027E00EE6F24
:100CFA0060057E007F0122A206E433FF300A047EEB
:100D0A000180027E00EE6F60057E007F0222A2074C
:100D1A00E433FF300B047E0180027E00EE6F600533
:100D2A007E007F0322A208E433FF300C047E018098
:100D3A00027E00EE6F60057E007F0422E4FEFF2241
:10080000E4F508F509F50DF50EF50FF510C20475C0
:10081000112075122075132075142075152075167A
:1008200020751720751820120E01120F157BFF7A04
:100830000D794A120DDC120EEA7BFF7A0D79541203
:100840000DDC750C70120F358F0CE50C647470168E
:100850000509E50970020508120DA8120E790510A8
:10086000E5107002050F7F017E00120EEE7F807E84
:1008700000120EEE7BFF7A0D794A120DDC7F8B7E23
:1008800000120EEE7BFF7A0D7966120DDC120EEA75
:100890007BFF7A0D7954120DDC750C70A2909200DA
:1008A000A2919201A2929202A29392037FE87E0308
:1008B000120E8785990CE50C647460030209782098
:1008C0000D03020978E509646345087002D204AF9C
:1008D00009AE08120F048E088F09120DA8120E79A6
:1008E000AF10AE0F120F048E0F8F10C20D7F807EDF
:1008F00000120EEE7BFF7A0D796C120DDC120EEAFF
:100900007BFF7A0D796C120DDC7F807E00120EEE7B
:100910007BFF7A0D797D120DDCAF11120ED8AF126C
:10092000120ED37F857E00120EEE7BFF7A0D79804A
:10093000120DDC120ECC7BFF7A0D7983120DDC12C6
:100940000EEA7BFF7A0D798A120DDCAF15120ED8F4
:10095000AF16120ED37FC57E00120EEE7BFF7A0D0E
:10096000798D120DDCAF17120ED8AF18120ED37B93
:10097000FF7A0D7983120DDCA2009205A201920686
:10098000A2029207A2039208A2909209A291920A4F
:10099000A292920BA293920C120CEA8E198F1AE576
:1009A0001A4519700302089CE51A6401451970750F
:1009B000D3E510950EE50F950D500330044E120F40
:1009C000008E0D8F0EC3E510950EE50F950D4002BC
:1009D000C2047F807E00120EEE7BFF7A0D797D12BD
:1009E0000DDCAE0DAF0E7C007D0A120C09EF243039
:1009F000F511AE0DAF0E7C007D0A120C09ED24300E
:100A0000F512AF11120ED8AF12020B1E7F807E00BE
:100A1000120EEE7BFF7A0D7990120DDC75112075A8
:100A20001220020BB6E51A640245196003020AC1DE
:100A3000D3E510950EE50F950D500330045A120FB3
:100A4000008E0D8F0EC3E510950EE50F950D40023B
:100A5000C204AE0DAF0E7C007D0A120C09EF2430EB
:100A6000F513AE0DAF0E7C007D0A120C09ED24309B
:100A7000F5147F857E00120EEE7BFF7A0D798012D1
:100A80000DDC120ECC7F8B7E00120EEE7BFF7A0DFA
:100A90007966120DDC020BB67F857E00120EEE7BAE
:100AA000FF7A0D7996120DDC7F8B7E00120EEE7BA5
:100AB000FF7A0D7966120DDC751320751420020B78
:100AC000B6E51A640345197071D3E510950EE50F6C
:100AD000950D500330044E120F008E0D8F0EC3E59E
:100AE00010950EE50F950D4002C204AE0DAF0E7CC1
:100AF000007D0A120C09EF2430F515AE0DAF0E7C07
:100B0000007D0A120C09ED2430F516120EEA7BFF67
:100B10007A0D798A120DDCAF15120ED8AF16120EAF
:100B2000D87F208076120EEA7BFF7A0D799C120D19
:100B3000DC751520751620020BB6E51A64044519FC
:100B40007074D3E510950EE50F950D5003300450E9
:100B5000120F008E0D8F0EC3E510950EE50F950D4B
:100B60004002C204AE0DAF0E7C007D0A120C09EFEC
:100B70002430F517AE0DAF0E7C007D0A120C09ED86
:100B80002430F5187FC57E00120EEE7BFF7A0D79BA
:100B90008D120DDCAF17120ED8AF18120ED88016BA
:100BA0007FC57E00120EEE7BFF7A0D79A2120DDC5E
:0C0BB000751720751820750C7002089C49
:100C6A00020800E493A3F8E493A34003F68001F298
:100C7A0008DFF48029E493A3F85407240CC8C3338B
:100C8A00C4540F4420C8834004F456800146F6DF5A
:100C9A00E4800B0102040810204080900F47E47E94
:100CAA00019360BCA3FF543F30E509541FFEE4934F
:100CBA00A360010ECF54C025E060A840B8E493A316
:100CCA00FAE493A3F8E493A3C8C582C8CAC583CA41
:100CDA00F0A3C8C582C8CAC583CADFE9DEE780BEF9
:010F4B0000A5
:100BBC00BB010689828A83E0225002E722BBFE0237
:090BCC00E32289828A83E493226A
:100BD500BB010689828A83F0225002F722BBFE01FF
:020BE500F322F9
:100BE700F8BB010DE58229F582E5833AF583E8F044
:100BF700225006E92582C8F622BBFE05E92582C8F0
:020C0700F222D7
:100C0900BC000BBE0029EF8DF084FFADF022E4CCCF
:100C1900F875F008EF2FFFEE33FEEC33FCEE9DEC98
:100C2900984005FCEE9DFE0FD5F0E9E4CEFD22EDDE
:100C3900F8F5F0EE8420D21CFEADF075F008EF2F28
:100C4900FFED33FD4007985006D5F0F222C398FD19
:050C59000FD5F0EA22B6
:00000001FF
